{
  "_format": "hh-sol-artifact-1",
  "contractName": "MusicNFT",
  "sourceName": "contracts/Music.sol",
  "abi": [
    {
      "inputs": [],
      "stateMutability": "nonpayable",
      "type": "constructor"
    },
    {
      "inputs": [
        {
          "internalType": "address",
          "name": "sender",
          "type": "address"
        },
        {
          "internalType": "uint256",
          "name": "tokenId",
          "type": "uint256"
        },
        {
          "internalType": "address",
          "name": "owner",
          "type": "address"
        }
      ],
      "name": "ERC721IncorrectOwner",
      "type": "error"
    },
    {
      "inputs": [
        {
          "internalType": "address",
          "name": "operator",
          "type": "address"
        },
        {
          "internalType": "uint256",
          "name": "tokenId",
          "type": "uint256"
        }
      ],
      "name": "ERC721InsufficientApproval",
      "type": "error"
    },
    {
      "inputs": [
        {
          "internalType": "address",
          "name": "approver",
          "type": "address"
        }
      ],
      "name": "ERC721InvalidApprover",
      "type": "error"
    },
    {
      "inputs": [
        {
          "internalType": "address",
          "name": "operator",
          "type": "address"
        }
      ],
      "name": "ERC721InvalidOperator",
      "type": "error"
    },
    {
      "inputs": [
        {
          "internalType": "address",
          "name": "owner",
          "type": "address"
        }
      ],
      "name": "ERC721InvalidOwner",
      "type": "error"
    },
    {
      "inputs": [
        {
          "internalType": "address",
          "name": "receiver",
          "type": "address"
        }
      ],
      "name": "ERC721InvalidReceiver",
      "type": "error"
    },
    {
      "inputs": [
        {
          "internalType": "address",
          "name": "sender",
          "type": "address"
        }
      ],
      "name": "ERC721InvalidSender",
      "type": "error"
    },
    {
      "inputs": [
        {
          "internalType": "uint256",
          "name": "tokenId",
          "type": "uint256"
        }
      ],
      "name": "ERC721NonexistentToken",
      "type": "error"
    },
    {
      "anonymous": false,
      "inputs": [
        {
          "indexed": true,
          "internalType": "address",
          "name": "owner",
          "type": "address"
        },
        {
          "indexed": true,
          "internalType": "address",
          "name": "approved",
          "type": "address"
        },
        {
          "indexed": true,
          "internalType": "uint256",
          "name": "tokenId",
          "type": "uint256"
        }
      ],
      "name": "Approval",
      "type": "event"
    },
    {
      "anonymous": false,
      "inputs": [
        {
          "indexed": true,
          "internalType": "address",
          "name": "owner",
          "type": "address"
        },
        {
          "indexed": true,
          "internalType": "address",
          "name": "operator",
          "type": "address"
        },
        {
          "indexed": false,
          "internalType": "bool",
          "name": "approved",
          "type": "bool"
        }
      ],
      "name": "ApprovalForAll",
      "type": "event"
    },
    {
      "anonymous": false,
      "inputs": [
        {
          "indexed": false,
          "internalType": "uint256",
          "name": "_fromTokenId",
          "type": "uint256"
        },
        {
          "indexed": false,
          "internalType": "uint256",
          "name": "_toTokenId",
          "type": "uint256"
        }
      ],
      "name": "BatchMetadataUpdate",
      "type": "event"
    },
    {
      "anonymous": false,
      "inputs": [
        {
          "indexed": true,
          "internalType": "uint256",
          "name": "tokenId",
          "type": "uint256"
        },
        {
          "indexed": false,
          "internalType": "address",
          "name": "seller",
          "type": "address"
        },
        {
          "indexed": false,
          "internalType": "address",
          "name": "owner",
          "type": "address"
        }
      ],
      "name": "MarketItemCreated",
      "type": "event"
    },
    {
      "anonymous": false,
      "inputs": [
        {
          "indexed": false,
          "internalType": "uint256",
          "name": "_tokenId",
          "type": "uint256"
        }
      ],
      "name": "MetadataUpdate",
      "type": "event"
    },
    {
      "anonymous": false,
      "inputs": [
        {
          "indexed": true,
          "internalType": "address",
          "name": "from",
          "type": "address"
        },
        {
          "indexed": true,
          "internalType": "address",
          "name": "to",
          "type": "address"
        },
        {
          "indexed": true,
          "internalType": "uint256",
          "name": "tokenId",
          "type": "uint256"
        }
      ],
      "name": "Transfer",
      "type": "event"
    },
    {
      "inputs": [],
      "name": "_tokenIds",
      "outputs": [
        {
          "internalType": "uint256",
          "name": "_value",
          "type": "uint256"
        }
      ],
      "stateMutability": "view",
      "type": "function"
    },
    {
      "inputs": [
        {
          "internalType": "address",
          "name": "to",
          "type": "address"
        },
        {
          "internalType": "uint256",
          "name": "tokenId",
          "type": "uint256"
        }
      ],
      "name": "approve",
      "outputs": [],
      "stateMutability": "nonpayable",
      "type": "function"
    },
    {
      "inputs": [
        {
          "internalType": "address",
          "name": "owner",
          "type": "address"
        }
      ],
      "name": "balanceOf",
      "outputs": [
        {
          "internalType": "uint256",
          "name": "",
          "type": "uint256"
        }
      ],
      "stateMutability": "view",
      "type": "function"
    },
    {
      "inputs": [
        {
          "internalType": "string",
          "name": "tokenURI",
          "type": "string"
        }
      ],
      "name": "createToken",
      "outputs": [
        {
          "internalType": "uint256",
          "name": "",
          "type": "uint256"
        }
      ],
      "stateMutability": "payable",
      "type": "function"
    },
    {
      "inputs": [],
      "name": "fetchMarketItems",
      "outputs": [
        {
          "components": [
            {
              "internalType": "uint256",
              "name": "tokenId",
              "type": "uint256"
            },
            {
              "internalType": "address payable",
              "name": "seller",
              "type": "address"
            },
            {
              "internalType": "address payable",
              "name": "owner",
              "type": "address"
            }
          ],
          "internalType": "struct MusicNFT.MarketItem[]",
          "name": "",
          "type": "tuple[]"
        }
      ],
      "stateMutability": "view",
      "type": "function"
    },
    {
      "inputs": [
        {
          "internalType": "uint256",
          "name": "tokenId",
          "type": "uint256"
        }
      ],
      "name": "getApproved",
      "outputs": [
        {
          "internalType": "address",
          "name": "",
          "type": "address"
        }
      ],
      "stateMutability": "view",
      "type": "function"
    },
    {
      "inputs": [
        {
          "internalType": "uint256",
          "name": "tokenId",
          "type": "uint256"
        }
      ],
      "name": "getMusicNFTDetails",
      "outputs": [
        {
          "components": [
            {
              "internalType": "uint256",
              "name": "tokenId",
              "type": "uint256"
            },
            {
              "internalType": "address payable",
              "name": "seller",
              "type": "address"
            },
            {
              "internalType": "address payable",
              "name": "owner",
              "type": "address"
            }
          ],
          "internalType": "struct MusicNFT.MarketItem",
          "name": "",
          "type": "tuple"
        }
      ],
      "stateMutability": "view",
      "type": "function"
    },
    {
      "inputs": [
        {
          "internalType": "address",
          "name": "owner",
          "type": "address"
        },
        {
          "internalType": "address",
          "name": "operator",
          "type": "address"
        }
      ],
      "name": "isApprovedForAll",
      "outputs": [
        {
          "internalType": "bool",
          "name": "",
          "type": "bool"
        }
      ],
      "stateMutability": "view",
      "type": "function"
    },
    {
      "inputs": [],
      "name": "name",
      "outputs": [
        {
          "internalType": "string",
          "name": "",
          "type": "string"
        }
      ],
      "stateMutability": "view",
      "type": "function"
    },
    {
      "inputs": [
        {
          "internalType": "uint256",
          "name": "tokenId",
          "type": "uint256"
        }
      ],
      "name": "ownerOf",
      "outputs": [
        {
          "internalType": "address",
          "name": "",
          "type": "address"
        }
      ],
      "stateMutability": "view",
      "type": "function"
    },
    {
      "inputs": [
        {
          "internalType": "address",
          "name": "from",
          "type": "address"
        },
        {
          "internalType": "address",
          "name": "to",
          "type": "address"
        },
        {
          "internalType": "uint256",
          "name": "tokenId",
          "type": "uint256"
        }
      ],
      "name": "safeTransferFrom",
      "outputs": [],
      "stateMutability": "nonpayable",
      "type": "function"
    },
    {
      "inputs": [
        {
          "internalType": "address",
          "name": "from",
          "type": "address"
        },
        {
          "internalType": "address",
          "name": "to",
          "type": "address"
        },
        {
          "internalType": "uint256",
          "name": "tokenId",
          "type": "uint256"
        },
        {
          "internalType": "bytes",
          "name": "data",
          "type": "bytes"
        }
      ],
      "name": "safeTransferFrom",
      "outputs": [],
      "stateMutability": "nonpayable",
      "type": "function"
    },
    {
      "inputs": [
        {
          "internalType": "address",
          "name": "operator",
          "type": "address"
        },
        {
          "internalType": "bool",
          "name": "approved",
          "type": "bool"
        }
      ],
      "name": "setApprovalForAll",
      "outputs": [],
      "stateMutability": "nonpayable",
      "type": "function"
    },
    {
      "inputs": [
        {
          "internalType": "bytes4",
          "name": "interfaceId",
          "type": "bytes4"
        }
      ],
      "name": "supportsInterface",
      "outputs": [
        {
          "internalType": "bool",
          "name": "",
          "type": "bool"
        }
      ],
      "stateMutability": "view",
      "type": "function"
    },
    {
      "inputs": [],
      "name": "symbol",
      "outputs": [
        {
          "internalType": "string",
          "name": "",
          "type": "string"
        }
      ],
      "stateMutability": "view",
      "type": "function"
    },
    {
      "inputs": [
        {
          "internalType": "uint256",
          "name": "tokenId",
          "type": "uint256"
        }
      ],
      "name": "tokenURI",
      "outputs": [
        {
          "internalType": "string",
          "name": "",
          "type": "string"
        }
      ],
      "stateMutability": "view",
      "type": "function"
    },
    {
      "inputs": [
        {
          "internalType": "address",
          "name": "from",
          "type": "address"
        },
        {
          "internalType": "address",
          "name": "to",
          "type": "address"
        },
        {
          "internalType": "uint256",
          "name": "tokenId",
          "type": "uint256"
        }
      ],
      "name": "transferFrom",
      "outputs": [],
      "stateMutability": "nonpayable",
      "type": "function"
    }
  ],
  "bytecode": "0x60806040523480156200001157600080fd5b506040518060400160405280600c81526020016b4d7573696320546f6b656e7360a01b815250604051806040016040528060058152602001644d5553494360d81b815250816000908162000066919062000135565b50600162000075828262000135565b5050600880546001600160a01b031916331790555062000201565b634e487b7160e01b600052604160045260246000fd5b600181811c90821680620000bb57607f821691505b602082108103620000dc57634e487b7160e01b600052602260045260246000fd5b50919050565b601f8211156200013057600081815260208120601f850160051c810160208610156200010b5750805b601f850160051c820191505b818110156200012c5782815560010162000117565b5050505b505050565b81516001600160401b0381111562000151576200015162000090565b6200016981620001628454620000a6565b84620000e2565b602080601f831160018114620001a15760008415620001885750858301515b600019600386901b1c1916600185901b1785556200012c565b600085815260208120601f198616915b82811015620001d257888601518255948401946001909101908401620001b1565b5085821015620001f15787850151600019600388901b60f8161c191681555b5050505050600190811b01905550565b6117bb80620002116000396000f3fe6080604052600436106100fe5760003560e01c80636352211e11610095578063aa46a40011610064578063aa46a400146102ac578063b88d4fde146102c3578063c87b56dd146102e3578063ce17b6e314610303578063e985e9c51461038257600080fd5b80636352211e1461023757806370a082311461025757806395d89b4114610277578063a22cb4651461028c57600080fd5b80630f08efe0116100d15780630f08efe0146101b457806323b872dd146101d657806342842e0e146101f657806345576f941461021657600080fd5b806301ffc9a71461010357806306fdde0314610138578063081812fc1461015a578063095ea7b314610192575b600080fd5b34801561010f57600080fd5b5061012361011e3660046111cc565b6103a2565b60405190151581526020015b60405180910390f35b34801561014457600080fd5b5061014d6103cd565b60405161012f9190611239565b34801561016657600080fd5b5061017a61017536600461124c565b61045f565b6040516001600160a01b03909116815260200161012f565b34801561019e57600080fd5b506101b26101ad366004611281565b610488565b005b3480156101c057600080fd5b506101c9610497565b60405161012f91906112ab565b3480156101e257600080fd5b506101b26101f136600461131c565b6105ec565b34801561020257600080fd5b506101b261021136600461131c565b61067c565b6102296102243660046113e4565b61069c565b60405190815260200161012f565b34801561024357600080fd5b5061017a61025236600461124c565b6106d6565b34801561026357600080fd5b5061022961027236600461142d565b6106e1565b34801561028357600080fd5b5061014d610729565b34801561029857600080fd5b506101b26102a7366004611448565b610738565b3480156102b857600080fd5b506007546102299081565b3480156102cf57600080fd5b506101b26102de366004611484565b610743565b3480156102ef57600080fd5b5061014d6102fe36600461124c565b61075b565b34801561030f57600080fd5b5061037561031e36600461124c565b6040805160608082018352600080835260208084018290529284018190529384526009825292829020825193840183528054845260018101546001600160a01b039081169285019290925260020154169082015290565b60405161012f9190611500565b34801561038e57600080fd5b5061012361039d366004611531565b61086c565b60006001600160e01b03198216632483248360e11b14806103c757506103c78261089a565b92915050565b6060600080546103dc90611564565b80601f016020809104026020016040519081016040528092919081815260200182805461040890611564565b80156104555780601f1061042a57610100808354040283529160200191610455565b820191906000526020600020905b81548152906001019060200180831161043857829003601f168201915b5050505050905090565b600061046a826108ea565b506000828152600460205260409020546001600160a01b03166103c7565b610493828233610923565b5050565b606060006104a460075490565b90506000808267ffffffffffffffff8111156104c2576104c2611358565b60405190808252806020026020018201604052801561050d57816020015b60408051606081018252600080825260208083018290529282015282526000199092019101816104e05790505b50905060005b838110156105e457306009600061052b8460016115b4565b81526020810191909152604001600020600201546001600160a01b0316036105d257600061055a8260016115b4565b60008181526009602090815260409182902082516060810184528154815260018201546001600160a01b0390811693820193909352600282015490921692820192909252855192935090918590879081106105b7576105b76115c7565b60209081029190910101526105cd6001866115b4565b945050505b806105dc816115dd565b915050610513565b509392505050565b6001600160a01b03821661061b57604051633250574960e11b8152600060048201526024015b60405180910390fd5b6000610628838333610930565b9050836001600160a01b0316816001600160a01b031614610676576040516364283d7b60e01b81526001600160a01b0380861660048301526024820184905282166044820152606401610612565b50505050565b61069783838360405180602001604052806000815250610743565b505050565b60006106ac600780546001019055565b60006106b760075490565b90506106c33382610a29565b6106cd8184610a8e565b6103c781610ade565b60006103c7826108ea565b60006001600160a01b03821661070d576040516322718ad960e21b815260006004820152602401610612565b506001600160a01b031660009081526003602052604090205490565b6060600180546103dc90611564565b610493338383610b8c565b61074e8484846105ec565b6106763385858585610c2b565b6060610766826108ea565b506000828152600660205260408120805461078090611564565b80601f01602080910402602001604051908101604052809291908181526020018280546107ac90611564565b80156107f95780601f106107ce576101008083540402835291602001916107f9565b820191906000526020600020905b8154815290600101906020018083116107dc57829003601f168201915b50505050509050600061081760408051602081019091526000815290565b90508051600003610829575092915050565b81511561085b5780826040516020016108439291906115f6565b60405160208183030381529060405292505050919050565b61086484610d56565b949350505050565b6001600160a01b03918216600090815260056020908152604080832093909416825291909152205460ff1690565b60006001600160e01b031982166380ac58cd60e01b14806108cb57506001600160e01b03198216635b5e139f60e01b145b806103c757506301ffc9a760e01b6001600160e01b03198316146103c7565b6000818152600260205260408120546001600160a01b0316806103c757604051637e27328960e01b815260048101849052602401610612565b6106978383836001610dcb565b6000828152600260205260408120546001600160a01b039081169083161561095d5761095d818486610ed1565b6001600160a01b0381161561099b5761097a600085600080610dcb565b6001600160a01b038116600090815260036020526040902080546000190190555b6001600160a01b038516156109ca576001600160a01b0385166000908152600360205260409020805460010190555b60008481526002602052604080822080546001600160a01b0319166001600160a01b0389811691821790925591518793918516917fddf252ad1be2c89b69c2b068fc378daa952ba7f163c4a11628f55a4df523b3ef91a4949350505050565b6001600160a01b038216610a5357604051633250574960e11b815260006004820152602401610612565b6000610a6183836000610930565b90506001600160a01b03811615610697576040516339e3563760e11b815260006004820152602401610612565b6000828152600660205260409020610aa6828261166b565b506040518281527ff8e1a15aba9398e019f0b49df1a4fde98ee17ae345cb5f6b5e2c27f5033e8ce79060200160405180910390a15050565b6040805160608101825282815233602080830182815230848601818152600088815260099094529590922093518455516001840180546001600160a01b03199081166001600160a01b0393841617909155945160029094018054909516931692909217909255610b4f919083610f35565b6040805133815230602082015282917f0eb18d5d7034682d280fbb888091eabba9fbc0ff44b8d06860451053c4db1b49910160405180910390a250565b6001600160a01b038216610bbe57604051630b61174360e31b81526001600160a01b0383166004820152602401610612565b6001600160a01b03838116600081815260056020908152604080832094871680845294825291829020805460ff191686151590811790915591519182527f17307eab39ab6107e8899845ad3d59bd9653f200f220920489ca2b5937696c31910160405180910390a3505050565b6001600160a01b0383163b15610d4f57604051630a85bd0160e11b81526001600160a01b0384169063150b7a0290610c6d90889088908790879060040161172b565b6020604051808303816000875af1925050508015610ca8575060408051601f3d908101601f19168201909252610ca591810190611768565b60015b610d11573d808015610cd6576040519150601f19603f3d011682016040523d82523d6000602084013e610cdb565b606091505b508051600003610d0957604051633250574960e11b81526001600160a01b0385166004820152602401610612565b805181602001fd5b6001600160e01b03198116630a85bd0160e11b14610d4d57604051633250574960e11b81526001600160a01b0385166004820152602401610612565b505b5050505050565b6060610d61826108ea565b506000610d7960408051602081019091526000815290565b90506000815111610d995760405180602001604052806000815250610dc4565b80610da384610fe5565b604051602001610db49291906115f6565b6040516020818303038152906040525b9392505050565b8080610ddf57506001600160a01b03821615155b15610ea1576000610def846108ea565b90506001600160a01b03831615801590610e1b5750826001600160a01b0316816001600160a01b031614155b8015610e2e5750610e2c818461086c565b155b15610e575760405163a9fbf51f60e01b81526001600160a01b0384166004820152602401610612565b8115610e9f5783856001600160a01b0316826001600160a01b03167f8c5be1e5ebec7d5bd14f71427d1e84f3dd0314c0f7b2291e5b200ac8c7c3b92560405160405180910390a45b505b5050600090815260046020526040902080546001600160a01b0319166001600160a01b0392909216919091179055565b610edc838383611078565b610697576001600160a01b038316610f0a57604051637e27328960e01b815260048101829052602401610612565b60405163177e802f60e01b81526001600160a01b038316600482015260248101829052604401610612565b6001600160a01b038216610f5f57604051633250574960e11b815260006004820152602401610612565b6000610f6d83836000610930565b90506001600160a01b038116610f9957604051637e27328960e01b815260048101839052602401610612565b836001600160a01b0316816001600160a01b031614610676576040516364283d7b60e01b81526001600160a01b0380861660048301526024820184905282166044820152606401610612565b60606000610ff2836110db565b600101905060008167ffffffffffffffff81111561101257611012611358565b6040519080825280601f01601f19166020018201604052801561103c576020820181803683370190505b5090508181016020015b600019016f181899199a1a9b1b9c1cb0b131b232b360811b600a86061a8153600a850494508461104657509392505050565b60006001600160a01b038316158015906108645750826001600160a01b0316846001600160a01b031614806110b257506110b2848461086c565b806108645750506000908152600460205260409020546001600160a01b03908116911614919050565b60008072184f03e93ff9f4daa797ed6e38ed64bf6a1f0160401b831061111a5772184f03e93ff9f4daa797ed6e38ed64bf6a1f0160401b830492506040015b6d04ee2d6d415b85acef81000000008310611146576d04ee2d6d415b85acef8100000000830492506020015b662386f26fc10000831061116457662386f26fc10000830492506010015b6305f5e100831061117c576305f5e100830492506008015b612710831061119057612710830492506004015b606483106111a2576064830492506002015b600a83106103c75760010192915050565b6001600160e01b0319811681146111c957600080fd5b50565b6000602082840312156111de57600080fd5b8135610dc4816111b3565b60005b838110156112045781810151838201526020016111ec565b50506000910152565b600081518084526112258160208601602086016111e9565b601f01601f19169290920160200192915050565b602081526000610dc4602083018461120d565b60006020828403121561125e57600080fd5b5035919050565b80356001600160a01b038116811461127c57600080fd5b919050565b6000806040838503121561129457600080fd5b61129d83611265565b946020939093013593505050565b6020808252825182820181905260009190848201906040850190845b81811015611310576112fd838551805182526020808201516001600160a01b039081169184019190915260409182015116910152565b92840192606092909201916001016112c7565b50909695505050505050565b60008060006060848603121561133157600080fd5b61133a84611265565b925061134860208501611265565b9150604084013590509250925092565b634e487b7160e01b600052604160045260246000fd5b600067ffffffffffffffff8084111561138957611389611358565b604051601f8501601f19908116603f011681019082821181831017156113b1576113b1611358565b816040528093508581528686860111156113ca57600080fd5b858560208301376000602087830101525050509392505050565b6000602082840312156113f657600080fd5b813567ffffffffffffffff81111561140d57600080fd5b8201601f8101841361141e57600080fd5b6108648482356020840161136e565b60006020828403121561143f57600080fd5b610dc482611265565b6000806040838503121561145b57600080fd5b61146483611265565b91506020830135801515811461147957600080fd5b809150509250929050565b6000806000806080858703121561149a57600080fd5b6114a385611265565b93506114b160208601611265565b925060408501359150606085013567ffffffffffffffff8111156114d457600080fd5b8501601f810187136114e557600080fd5b6114f48782356020840161136e565b91505092959194509250565b606081016103c78284805182526020808201516001600160a01b039081169184019190915260409182015116910152565b6000806040838503121561154457600080fd5b61154d83611265565b915061155b60208401611265565b90509250929050565b600181811c9082168061157857607f821691505b60208210810361159857634e487b7160e01b600052602260045260246000fd5b50919050565b634e487b7160e01b600052601160045260246000fd5b808201808211156103c7576103c761159e565b634e487b7160e01b600052603260045260246000fd5b6000600182016115ef576115ef61159e565b5060010190565b600083516116088184602088016111e9565b83519083019061161c8183602088016111e9565b01949350505050565b601f82111561069757600081815260208120601f850160051c8101602086101561164c5750805b601f850160051c820191505b81811015610d4d57828155600101611658565b815167ffffffffffffffff81111561168557611685611358565b611699816116938454611564565b84611625565b602080601f8311600181146116ce57600084156116b65750858301515b600019600386901b1c1916600185901b178555610d4d565b600085815260208120601f198616915b828110156116fd578886015182559484019460019091019084016116de565b508582101561171b5787850151600019600388901b60f8161c191681555b5050505050600190811b01905550565b6001600160a01b038581168252841660208201526040810183905260806060820181905260009061175e9083018461120d565b9695505050505050565b60006020828403121561177a57600080fd5b8151610dc4816111b356fea264697066735822122097b355360eaa5de747c06379782d15e59c3ba14c895b985008a4ae668f8828b464736f6c63430008140033",
  "linkReferences": {},
  "deployedLinkReferences": {}
}