{
  "_format": "hh-sol-artifact-1",
  "contractName": "MusicICO",
  "sourceName": "contracts/ICO.sol",
  "abi": [
    {
      "inputs": [],
      "stateMutability": "nonpayable",
      "type": "constructor"
    },
    {
      "inputs": [
        {
          "internalType": "uint256",
          "name": "_tokenAmount",
          "type": "uint256"
        }
      ],
      "name": "buyToken",
      "outputs": [],
      "stateMutability": "payable",
      "type": "function"
    },
    {
      "inputs": [],
      "name": "getTokenDetails",
      "outputs": [
        {
          "internalType": "string",
          "name": "name",
          "type": "string"
        },
        {
          "internalType": "string",
          "name": "symbol",
          "type": "string"
        },
        {
          "internalType": "uint256",
          "name": "balance",
          "type": "uint256"
        },
        {
          "internalType": "uint256",
          "name": "supply",
          "type": "uint256"
        },
        {
          "internalType": "uint256",
          "name": "tokenPrice",
          "type": "uint256"
        },
        {
          "internalType": "address",
          "name": "tokenAddr",
          "type": "address"
        }
      ],
      "stateMutability": "view",
      "type": "function"
    },
    {
      "inputs": [],
      "name": "owner",
      "outputs": [
        {
          "internalType": "address",
          "name": "",
          "type": "address"
        }
      ],
      "stateMutability": "view",
      "type": "function"
    },
    {
      "inputs": [],
      "name": "soldTokens",
      "outputs": [
        {
          "internalType": "uint256",
          "name": "",
          "type": "uint256"
        }
      ],
      "stateMutability": "view",
      "type": "function"
    },
    {
      "inputs": [],
      "name": "tokenAddress",
      "outputs": [
        {
          "internalType": "address",
          "name": "",
          "type": "address"
        }
      ],
      "stateMutability": "view",
      "type": "function"
    },
    {
      "inputs": [
        {
          "internalType": "uint256",
          "name": "_tokenAmount",
          "type": "uint256"
        }
      ],
      "name": "tokenReward",
      "outputs": [],
      "stateMutability": "payable",
      "type": "function"
    },
    {
      "inputs": [],
      "name": "tokenSalePrice",
      "outputs": [
        {
          "internalType": "uint256",
          "name": "",
          "type": "uint256"
        }
      ],
      "stateMutability": "view",
      "type": "function"
    },
    {
      "inputs": [
        {
          "internalType": "address payable",
          "name": "_receiver",
          "type": "address"
        },
        {
          "internalType": "uint256",
          "name": "_amount",
          "type": "uint256"
        }
      ],
      "name": "transferEther",
      "outputs": [],
      "stateMutability": "payable",
      "type": "function"
    },
    {
      "inputs": [
        {
          "internalType": "uint256",
          "name": "_amount",
          "type": "uint256"
        }
      ],
      "name": "transferToOwner",
      "outputs": [],
      "stateMutability": "payable",
      "type": "function"
    },
    {
      "inputs": [
        {
          "internalType": "address",
          "name": "_tokenAddress",
          "type": "address"
        }
      ],
      "name": "updateToken",
      "outputs": [],
      "stateMutability": "nonpayable",
      "type": "function"
    },
    {
      "inputs": [
        {
          "internalType": "uint256",
          "name": "_tokenSalePrice",
          "type": "uint256"
        }
      ],
      "name": "updateTokenSalePrice",
      "outputs": [],
      "stateMutability": "nonpayable",
      "type": "function"
    }
  ],
  "bytecode": "0x608060405234801561001057600080fd5b50600080546001600160a01b03191633179055610cd5806100326000396000f3fe60806040526004361061009c5760003560e01c806387c1ed121161006457806387c1ed12146101255780638da5cb5b146101385780639d76ea5814610170578063e86790eb14610190578063ff332ab7146101a6578063ffdeb903146101cd57600080fd5b806305b1137b146100a15780632ce47905146100b65780632d296bf1146100c95780635ed9ebfc146100dc5780637ad3def214610105575b600080fd5b6100b46100af3660046109e7565b6101ed565b005b6100b46100c4366004610a13565b6102d6565b6100b46100d7366004610a13565b610448565b3480156100e857600080fd5b506100f260035481565b6040519081526020015b60405180910390f35b34801561011157600080fd5b506100b4610120366004610a2c565b610661565b6100b4610133366004610a13565b6106ad565b34801561014457600080fd5b50600054610158906001600160a01b031681565b6040516001600160a01b0390911681526020016100fc565b34801561017c57600080fd5b50600154610158906001600160a01b031681565b34801561019c57600080fd5b506100f260025481565b3480156101b257600080fd5b506101bb610790565b6040516100fc96959493929190610aa0565b3480156101d957600080fd5b506100b46101e8366004610a13565b61096d565b8034101561023c5760405162461bcd60e51b8152602060048201526017602482015276125b9cdd59999a58da595b9d08199d5b991cc81cd95b9d604a1b60448201526064015b60405180910390fd5b6000826001600160a01b03168260405160006040518083038185875af1925050503d8060008114610289576040519150601f19603f3d011682016040523d82523d6000602084013e61028e565b606091505b50509050806102d15760405162461bcd60e51b815260206004820152600f60248201526e151c985b9cd9995c8819985a5b1959608a1b6044820152606401610233565b505050565b6001546040516370a0823160e01b81523060048201526001600160a01b039091169081906370a0823190602401602060405180830381865afa158015610320573d6000803e3d6000fd5b505050506040513d601f19601f820116820180604052508101906103449190610af4565b8211156103935760405162461bcd60e51b815260206004820152601f60248201527f4e6f7420656e6f75676820746f6b656e73206c65667420666f722073616c65006044820152606401610233565b6001600160a01b03811663a9059cbb336103b585670de0b6b3a7640000610b23565b6040516001600160e01b031960e085901b1681526001600160a01b03909216600483015260248201526044016020604051808303816000875af1158015610400573d6000803e3d6000fd5b505050506040513d601f19601f820116820180604052508101906104249190610b3a565b61042d57600080fd5b816003600082825461043f9190610b5c565b90915550505050565b6104548160025461099c565b34146104bd5760405162461bcd60e51b815260206004820152603260248201527f496e73756666696369656e742045746865722070726f766964656420666f722060448201527174686520746f6b656e20707572636861736560701b6064820152608401610233565b6001546040516370a0823160e01b81523060048201526001600160a01b039091169081906370a0823190602401602060405180830381865afa158015610507573d6000803e3d6000fd5b505050506040513d601f19601f8201168201806040525081019061052b9190610af4565b82111561057a5760405162461bcd60e51b815260206004820152601f60248201527f4e6f7420656e6f75676820746f6b656e73206c65667420666f722073616c65006044820152606401610233565b6001600160a01b03811663a9059cbb3361059c85670de0b6b3a7640000610b23565b6040516001600160e01b031960e085901b1681526001600160a01b03909216600483015260248201526044016020604051808303816000875af11580156105e7573d6000803e3d6000fd5b505050506040513d601f19601f8201168201806040525081019061060b9190610b3a565b61061457600080fd5b600080546040516001600160a01b03909116913480156108fc02929091818181858888f1935050505015801561064e573d6000803e3d6000fd5b50816003600082825461043f9190610b5c565b6000546001600160a01b0316331461068b5760405162461bcd60e51b815260040161023390610b6f565b600180546001600160a01b0319166001600160a01b0392909216919091179055565b803410156106f75760405162461bcd60e51b8152602060048201526017602482015276125b9cdd59999a58da595b9d08199d5b991cc81cd95b9d604a1b6044820152606401610233565b600080546040516001600160a01b039091169083908381818185875af1925050503d8060008114610744576040519150601f19603f3d011682016040523d82523d6000602084013e610749565b606091505b505090508061078c5760405162461bcd60e51b815260206004820152600f60248201526e151c985b9cd9995c8819985a5b1959608a1b6044820152606401610233565b5050565b6060806000806000806000600160009054906101000a90046001600160a01b03169050806001600160a01b03166306fdde036040518163ffffffff1660e01b8152600401600060405180830381865afa1580156107f1573d6000803e3d6000fd5b505050506040513d6000823e601f3d908101601f191682016040526108199190810190610bd0565b816001600160a01b03166395d89b416040518163ffffffff1660e01b8152600401600060405180830381865afa158015610857573d6000803e3d6000fd5b505050506040513d6000823e601f3d908101601f1916820160405261087f9190810190610bd0565b6040516370a0823160e01b81523060048201526001600160a01b038416906370a0823190602401602060405180830381865afa1580156108c3573d6000803e3d6000fd5b505050506040513d601f19601f820116820180604052508101906108e79190610af4565b836001600160a01b03166318160ddd6040518163ffffffff1660e01b8152600401602060405180830381865afa158015610925573d6000803e3d6000fd5b505050506040513d601f19601f820116820180604052508101906109499190610af4565b600254600154949c939b50919950975095506001600160a01b039091169350915050565b6000546001600160a01b031633146109975760405162461bcd60e51b815260040161023390610b6f565b600255565b60008115806109c0575082826109b28183610b23565b92506109be9083610c7d565b145b6109c957600080fd5b92915050565b6001600160a01b03811681146109e457600080fd5b50565b600080604083850312156109fa57600080fd5b8235610a05816109cf565b946020939093013593505050565b600060208284031215610a2557600080fd5b5035919050565b600060208284031215610a3e57600080fd5b8135610a49816109cf565b9392505050565b60005b83811015610a6b578181015183820152602001610a53565b50506000910152565b60008151808452610a8c816020860160208601610a50565b601f01601f19169290920160200192915050565b60c081526000610ab360c0830189610a74565b8281036020840152610ac58189610a74565b60408401979097525050606081019390935260808301919091526001600160a01b031660a09091015292915050565b600060208284031215610b0657600080fd5b5051919050565b634e487b7160e01b600052601160045260246000fd5b80820281158282048414176109c9576109c9610b0d565b600060208284031215610b4c57600080fd5b81518015158114610a4957600080fd5b808201808211156109c9576109c9610b0d565b6020808252602b908201527f4f6e6c7920636f6e7472616374206f776e65722063616e20706572666f726d2060408201526a3a3434b99030b1ba34b7b760a91b606082015260800190565b634e487b7160e01b600052604160045260246000fd5b600060208284031215610be257600080fd5b815167ffffffffffffffff80821115610bfa57600080fd5b818401915084601f830112610c0e57600080fd5b815181811115610c2057610c20610bba565b604051601f8201601f19908116603f01168101908382118183101715610c4857610c48610bba565b81604052828152876020848701011115610c6157600080fd5b610c72836020830160208801610a50565b979650505050505050565b600082610c9a57634e487b7160e01b600052601260045260246000fd5b50049056fea264697066735822122082944d8b76a69950032c06ee43dd122cc1fd8dcd77583f0b8f5f913fece821e464736f6c63430008140033",
  "linkReferences": {},
  "deployedLinkReferences": {}
}